:020000006F2966
:10000800FF00030E8301BE000A08BF008A017008C2
:10001800A0000408A1008B1C15288B01061188017B
:1000280051210B1C1A280B104221CB202008F0006C
:10003800210884003F088A003E0E8300FF0E7F0ED1
:020048000900AD
:10004A00831203131A08F100981C2D281812181687
:06005A007108F00008002F
:0E0060000030831203138C1A0130F0000800E8
:10006E0083120313FB01FA01F9018030F800F10C41
:10007E00F00C031C4B287408F90775080318750F4C
:10008E00FA070318FB0A0310F01F53287408FA0727
:10009E0075080318750FFB07FB0CFA0CF90CF80C1E
:1000AE00031C3E287B08F3007A08F2007908F10061
:0600BE007808F0000800C4
:1000C400831603130711831212150C3097040800CA
:1000D400831603131208013EF000F1010318F10A1C
:1000E40083124408F400F50137200630F20070084A
:1000F400F4007108F500720803198528F50CF40C56
:10010400F513FF3E7E280430F1007408F0007108F6
:1001140003199028F00D7010FF3E8A2830307005C6
:10012400F3007408F0007508F100F10CF00CF11301
:10013400F10CF00CF113700895000F30970573085B
:040144009704080014
:0E014800831203133D088A003C088200080061
:1001560083120313C401C50180304506F0008030C8
:100166007002031DB828053044020318CA2830203F
:1001760070080319C9284408343EC60025204608DD
:10018600840070088000C40A0319C50AAF28080055
:100196000030831203133A06031DD32801303906B3
:1001A600031DDB283B08223E840000088800E8285F
:1001B60000303A06031DE12802303906031DE828FF
:0C01C6003B082A3E840000088800080066
:1001D200A4208A110A128000840ABC0A0319BD0AEB
:0801E200F003031DE9280800E9
:1001EA008312031338082F3A031D302930303402A2
:1001FA00B900BA01031CBA0330303502F000F1012C
:10020A00031CF1036430F4000030F5003720700855
:10021A00B20771080318013EB30730303602F00006
:10022A00F101031CF1030A30F4000030F500372015
:10023A007008B20771080318013EB307303037025D
:10024A00F000F101031CF1037008B20771080318EA
:0A025A00013EB3073129AB20080074
:10026400831203133208C4006A20B201B30162206E
:02027400080080
:0E0276008316031381010C10D8308B00080092
:10028400831203130608BB007030BB05BB0CBB1301
:0E029400BB0CBB13BB0CBB13BB0CBB13080095
:1002A20083160313071583121211F0309705080005
:1002B20083160313981690308312980083168717BB
:1002C200071383128C1E68291A08F000622908009D
:0C02D20083120313950117129712080005
:1002DE0083120313A2012130A3000630A4002430A0
:1002EE00A5001830A6000930A7001230A800A901F9
:1002FE00AA011230AB000930AC001830AD0024302A
:10030E00AE000630AF002130B000B101B201B30132
:10031E003130B4003030B5003030B6003030B70078
:10032E002F30B8000130B900BA010E3083169F008D
:10033E0007309C0083128601F330831686008312E9
:10034E008801831688013B21831212149214D03037
:10035E0083169200692119308316990018155921B8
:10036E000615AB20F52006114221CB2006113221B5
:04037E00B729C029B2
:02400E004A2F37
:00000001FF
