:020000040000FA
:100000006D2CFF3FFF3FFF3FFF00030E8301BC004D
:100010000A08BB008A010408A1008B1C1328AD0A42
:100020000319AE0A8B100B1D39280B123C30F0005F
:100030000030F1002D08F4002E08F50042243308AA
:10004000F4003408F500BC239E237008AF0071084B
:10005000B0007208B1007308B2000B167008BD0042
:100060007108BE007208BF007308C0002C08C100F0
:10007000A421210884003B088A003C0E8300FF0E67
:100080007F0E0900F201F101F001F801F3010030E7
:100090000800FB14FB1F5328FF30F300F200F100AF
:1000A000F000FA0DF20CFF300800FA1FF2130030D6
:1000B00008007B15FB1F63280130F300F201F101FA
:1000C000F001FA0DF20CFF30080083120313FA015D
:1000D0007308031D7A147708031DFA147A080319AC
:1000E000B128033A03197C287A187928F61FAF281B
:1000F000AD28F21FAD28AF2872088039FA00F2133C
:1001000076088039F6137A0603198A287A080319C3
:10011000AD28AF287708730203199128031CA5287E
:10012000A9287608720203199828031CA528A92873
:100130007508710203199F28031CA528A9287408B3
:1001400070020319B1280318A928FA080319AF2867
:10015000AD28FA080319AD28AF28031408000310CE
:1001600008000314031508000800831203133A085B
:100170008A00390882000800A0017208031DD128F6
:100180007108F2007008F100F001A0157208031D5B
:10019000D1287108F200F101A0112016720803198C
:1001A000DF282008F302031D031CE3280310F21BC1
:1001B000E728F00DF10DF20DF30BD728E3280130FD
:1001C000FC004220EA280230FC005920EA280430D2
:1001D000FC0055200800831203134A08F20072083D
:1001E000F100F20A4B08F000CB0A70088400000806
:1001F000F000710884007008800071088400000815
:1002000003190329EF284A08F0000800831203139A
:10021000F8010830FC00700DF80D7408F80203189E
:100220001329F8070310F00DFC0B0B290800710DC2
:10023000F80DF90D7408F8027508031C750FF90222
:10024000F00DF10D0F30FC00710DF80DF90D740873
:10025000701C3029F8027508031C750FF902352946
:10026000F80775080318750FF907F00DF10DFC0B71
:100270002429701841297408F80775080318750FA8
:10028000F9070000080083120313FB017308031D24
:10029000770803199A2972087606FA007708F30797
:1002A0007E30031C5729F30203189D295A29F302B3
:1002B000031CA0297208F8007108FC007008FD00FA
:1002C000F817F6170310F201F101F0011830A00041
:1002D0007D1C74297408F00775080318750FF10761
:1002E00076080318760FF207F20CF10CF00CF80CFC
:1002F000FC0CFD0C0310A00B6829F21B8429F80DDF
:10030000F00DF10DF20DF3037B1B701C9629F81F05
:100310009629F00A0319F10A0319F20A031D962916
:10032000F20CF10CF00CF30A03199D29FA1FF213D9
:100330000030A22901304220A22902304920A229FE
:10034000043059200000080083120313C801C901BA
:100350003D08C4003E08C5003F08C6004008C7006D
:100360004708FF3A031DBE294608FF3A031DBE2970
:100370004508FF3A031DBE294408FF3A031DC8295A
:100380004108CA002230CB00EB200330F0009D2B47
:100390000130C200C61FD72980304606F000700821
:1003A000C600C20A410884002D308000C10A003016
:1003B000F0004706031DE62970084606031DE629DE
:1003C00070084506031DE6294408003A031DEF297D
:1003D0004108CA002630CB00EB20F0019D2B4708D6
:1003E000FF3A031DFD294608003A031DFD29450873
:1003F000003A031DFD294408003A031D072A41085D
:10040000CA002830CB00EB204208F0009D2B0030C2
:10041000F4000030F5000030F6007F30F7004408AB
:10042000F0004508F1004608F2004708F300652097
:10043000013003180030F000700803193A2A44080C
:10044000F0004508F1004608F2004708F3000030CC
:10045000F4000030F5002030F6008230F700432130
:100460007008C4007108C5007208C6007308C70090
:10047000C903072A0030F4000030F5002030F600F0
:100480008230F7004408F0004508F1004608F20009
:100490004708F30065200130031C0030F0007008AD
:1004A00003196D2A4408F0004508F1004608F200DF
:1004B0004708F300CD30F400CC30F5004C30F600A6
:1004C0007B30F70043217008C4007108C500720832
:1004D000C6007308C700C90A3A2AFF304405F8006D
:1004E000FF304505F9007F304605FA00003047052A
:1004F000FB007808F4007908F5007A08F6007B081C
:10050000F700F40DF50DF60DF70D741000304405ED
:10051000F00000304505F10000304605F200FF30E4
:100520004705F3007008C4007108C5007208C600D2
:100530007308C70074084404F00075084504F1000E
:1005400076084604F20077084704F3007008C400F8
:100550007108C5007208C6007308C7007F304702E3
:10056000F0007008C3000130C7007008F4004408B0
:10057000F0004508F1004608F2004708F30074084F
:100580000319C92AF00DF10DF20DF30D7010FF3EA5
:10059000C02A7008C4007108C5007208C60073083C
:1005A000C7004708303EF000410884007008800012
:1005B000C10A80304906F0008030013A7002031C05
:1005C000EA2A8030063AF000803049067002031CA7
:1005D000EA2AF12A410884002E308000C10A013045
:1005E000C8000630C3004308003A03194F2BC70167
:1005F0004408F0004508F1004608F2004708F300FF
:10060000F00DF10DF20DF30D7010F00DF10DF20D76
:10061000F30D70104408F00745080318450FF10763
:1006200046080318460FF20747080318470FF30759
:100630007008C4007108C5007208C6007308C700BE
:100640004408F0004508F1004608F2004708F300AE
:10065000F00DF10DF20DF30D70107008C40071086B
:10066000C5007208C6007308C7004708303EF00096
:100670004108840070088000C10A4808003A031D40
:100680004D2BC9034908003A031D4D2B4108840036
:100690002E308000C10A0130C800C303F32AFF30A6
:1006A000410784000008303A031D582BC1034F2B2B
:1006B000FF304107840000082E3A031D602BC10360
:1006C0004908003A0319992B4108840065308000DD
:1006D000C10A80304906F0008030003A70020318E9
:1006E000792B410884002D308000C10A4908003C64
:1006F000C9004908C3004908093C03188B2B0A307C
:10070000F4004308F00006213030F007410884006F
:1007100070088000C10A0A30F4004308F000062186
:100720007808F0003030F00741088400700880003D
:10073000C10A410884008001F001080083120313FC
:100740007008F8007108F000F101F201F301FB01FB
:10075000FC019630F300FA01F01FB42BF809F00900
:10076000F80A0319F00AFA177008F1007808F00087
:10077000F801F201BC200800831203137408003A48
:10078000031DCB2B7508003A031DCB2BFF30F00067
:100790007F30F100242C83120313FD01F901F801CD
:1007A000710870040319003471087506FA00FA1B09
:1007B000FD09FB01F51FE12BF409F509F40A031902
:1007C000F50AF11FE82BF009F109F00A0319F10A03
:1007D00071087504FA00FA1BFD2B17217B18102CE9
:1007E000FD1F0034F009F109F00A0319F10AF809B4
:1007F000F909F80A0319F90A0034F51F0C2CF11B4A
:10080000082C7108F9007008F800F101F001F02BD4
:10081000F101F001F00A0034F109F009FB0AED2BB7
:10082000F80A0319F90A74087802031DF02B7508F9
:100830007902031DF02BF901F801F00A0319F10AFE
:10084000F11FF02B0000FF3408000B168316031372
:1008500081120112811101158110011001138B17F2
:100860000B118330831281008B160800B5208A118A
:100870000A128000840AB90A0319BA0AF003031D98
:10088000362C080083120313FB01FA01F9018030B2
:10089000F800F10CF00C031C562C7408F9077508CD
:1008A0000318750FFA070318FB0A0310F01F5E2CDC
:1008B0007408FA0775080318750FFB07FB0CFA0C90
:1008C000F90CF80C031C492C7B08F3007A08F200A1
:1008D0007908F1007808F00008008C2425246F2C9A
:1008E000FF3FFF3FFF3FFF3FFF3F4E3461344E3439
:1008F00000343034003449344E3446340034353416
:100900000034003400340034003400340134003446
:1009100030343034303400342230840017308312C5
:100920000313F0007530B9000430BA003624080013
:10093000FF3FFF3FFF3FFF3FFF3FFF3FFF3FFF3FC7
:10094000FF3FFF3FFF3FFF3FFF3FFF3FFF3FFF3FB7
:10095000FF3FFF3FFF3FFF3FFF3FFF3FFF3FFF3FA7
:10096000FF3FFF3FFF3FFF3FFF3FFF3FFF3FFF3F97
:04400E007A3FFF3FB7
:00000001FF
