:1000000015C1000041C100003FC100003DC100001A
:100010003BC1000039C1000037C1000035C10000FC
:1000200033C1000074C2000072C2000070C2000040
:100030002BC1000029C1000027C1000025C100001C
:1000400023C1000021C100001FC100001DC100002C
:100050001BC1000019C1000017C100000FC400003F
:1000600013C1000011C100000FC100000DC100004C
:100070000BC1000009C1000007C1000005C100005C
:1000800003C1000001C10000FFC00000FDC000006E
:10009000FBC00000F9C00000F7C00000F5C0000080
:1000A000F3C00000F1C00000EFC00000EDC0000090
:1000B000EBC00000E9C00000E7C00000E5C00000A0
:1000C000E3C00000E1C00000DFC00000DDC00000B0
:1000D000DBC00000D9C00000D7C00000D5C00000C0
:1000E000D3C0000081058405730577057D05BB0538
:1000F00088058C05920596059A05A005A405A80516
:10010000BB05AE05B205B60500000A0B02090C0DD1
:100110000E080703040100000000000000000000BA
:1001200000000000000000000000000000000000CF
:10013000000000001211100000000000000000008C
:1001400000000000000000000000000000000102AC
:1001500010202008081020401020408002010201D9
:100160000804020101020408102040808040201091
:1001700008040201800402018040201008040201EA
:100180000804020101020408102040800102040852
:10019000102040800505050507050808080802022B
:1001A00002020A0A08080404040401010101010111
:1001B00001010303030303030303040707070C0CF4
:1001C0000C0C0C0C0C0C02020202060606060606BB
:1001D00006060B0B0B0B0B0B0B0B00002000230078
:1001E000260029002C002F0032000001000003012E
:1001F0000601090100002200250028002B002E0026
:100200003100340002010000050108010B0100006B
:100210002100240027002A002D00300033000101B6
:100220000000040107010A018001860111241FBE9C
:10023000CFEFD1E2DEBFCDBF00E00CBF12E0A0E007
:10024000B2E0EEEBFDE000E00BBF02C007900D92C4
:10025000A631B107D9F722E0A6E1B2E001C01D92B4
:10026000A438B207E1F712E0CAE2D2E000E005C02C
:1002700022970109FE010BBF79D5C832D10780E072
:100280000807B1F710D58AC5BBCE40E855E260E05B
:1002900070E086E192E03BD260E080E06DD460E007
:1002A00084E06AC480E0F0D395958795959587950D
:1002B0008053984F90933602809335020895809131
:1002C0003502909136022AE030E0B901F8D48093EB
:1002D0000002CB01B901F3D480930102CB01B90133
:1002E000EED480930202CB01B901E9D480930302DA
:1002F00070933602609335028FE280930402089572
:1003000020E04BE06AE086E192E0D3C186E192E032
:100310007CC1CF93DF9386E192E0A5D0892B51F089
:10032000C0E0D2E0699186E192E030D082E0C53051
:10033000D807C1F7DF91CF910895B4DFC0DFE9DFBF
:1003400068EE73E080E090E006C32091790230917E
:100350007A0228173907B9F4909137028091380250
:10036000981789F0E0913702F0E0E75CFD4F80815B
:100370002091370230E02F5F3F4F2F7333272093B8
:10038000370290E008958FEF9FEF08951F93CF936A
:10039000DF93DC015C968D919C915D97009749F409
:1003A00081E090E013969C938E93129780E090E00A
:1003B0003BC05196ED91FC91529750962C915097DD
:1003C000322F30951FB75E964C915E9741FB772791
:1003D00070F941FD6095F8944081772311F0422B2C
:1003E00001C043234083EC012197F1F748E050819D
:1003F00060FF02C0522B01C053235083EC012197B0
:10040000F1F76695415099F78081772311F08323A6
:1004100001C0822B80831FBF5C968D919C915D975C
:100420000197F1F781E090E0DF91CF911F9108955E
:1004300008952091790230917A022817390781F4C2
:100440009091370280913802981751F0E09137026D
:10045000F0E0E75CFD4F8081992787FD9095089536
:100460008FEF9FEF08952091790230917A0228173B
:10047000390761F4809138022091370290E0805C66
:100480009F4F821B910960E470E019C480E090E006
:100490000895E0917902F0917A02E817F90769F47A
:1004A000A389B4899C918589809589238C93109226
:1004B0007A021092790281E0089580E00895CF9346
:1004C000DF93EC018A8D9B8D892BE9F08091790275
:1004D00090917A028C179D07B1F0009709F0D9DF4F
:1004E0008E8D8E7F8E8F1092380210923702D093AD
:1004F0007A02C0937902EB89FC8980819D89892BDE
:10050000808381E001C080E0DF91CF9108951F9248
:100510000F920FB60F9211240BB60F922F933F93A9
:100520004F935F936F937F938F939F93AF93BF93FB
:10053000EF93FF93E0917902F0917A02309709F4FA
:1005400051C0868DA685B785958581FF04C08C91A5
:10055000892329F447C08C91892309F043C0A389DA
:10056000B4899C918589809589238C938689978904
:100570000197F1F7208D318DA685B785758558E0F7
:1005800040E0C9010197F1F7842F90E09595879598
:10059000482F6C91672309F04068515091F7868D80
:1005A00081FD40958091380290E001968F739927E4
:1005B00020913702281749F0A0913802B0E0A75CDB
:1005C000BD4F4C938093380203C0868D8160868F27
:1005D000828D938D0197F1F7A389B4898C919589C8
:1005E000892B8C93FF91EF91BF91AF919F918F9148
:1005F0007F916F915F914F913F912F910F900BBE23
:100600000F900FBE0F901F9018952AE032E0FC016A
:10061000318320833ECF1F93CF93DF93EC01162FBE
:100620006E8D6695617081E06827812FDED261E072
:10063000812FA2D2812F90E0FC01E25BFE4FE4917A
:10064000E88BFC01EC56FE4FE491F0E0EE0FFF1F4B
:10065000EC50FE4F859194919A8B898BDF91CF91CD
:100660001F9108951F93CF93DF93EC01162F60E045
:10067000812F82D28E8D81FD03C061E0812FB5D2A2
:100680001C87812F90E0FC01E25BFE4FE491ED8737
:10069000FC01EC56FE4FE491F0E0EE0FFF1FE65236
:1006A000FE4F859194919F878E87DF91CF911F9107
:1006B0000895FF920F931F93CF93DF93EC01F62ED3
:1006C000522F1B821A8208EE13E020E030E00C83E8
:1006D0001D832E833F838AE092E0998388831F8A5B
:1006E0001E8A198E188E1B8E1A8E1D8E1C8E8E8D54
:1006F0008E7F50FB81F98E8F642FCE018CDF6F2DA2
:10070000CE01DF91CF911F910F91FF90ABCF0F934F
:100710001F93CF93DF93EC019A01AB011B8E1A8ECE
:10072000198E188E1F8A1E8A60E079E08DE390E0B2
:10073000FBD2C9012430310520F0B90163507109A1
:1007400002C061E070E07D8F6C8F1C8506EF010FA9
:10075000043048F06EEC610F643028F062EC610FF9
:10076000683008F07DC0B9017695679564317105F0
:1007700018F06351710902C061E070E07F8B6E8BED
:10078000069718F0C901059702C081E090E0998FA3
:10079000888FC901880F991F820F931F969587959F
:1007A000969587958D30910510F00C9702C081E0E9
:1007B00090E09B8F8A8F043060F08EEC810F843044
:1007C00040F082EC810F883008F050C0A8E6B0E01D
:1007D0004FC0A8E6B0E0E8E6F0E09081043028F0F1
:1007E0001E53183010F484E001C081E0892B8C93F3
:1007F0002C8536EF320F343058F08EEC820F843077
:1008000038F082EC820F883030F48DE690E005C03D
:100810008BE690E002C080E090E09C8B8B8B3430C4
:1008200010F426500BC0223379F0233379F02433AF
:1008300079F082EC820F883068F4282F81E001C0C3
:10084000880F2A95EAF707C088E005C084E003C056
:1008500082E001C081E08D8B8C8D9D8D0197F1F739
:10086000CE01DF91CF911F910F9129CEA0E0B0E092
:10087000883008F4B0CFE0E0F0E0AFCF1F920F92E5
:100880000FB60F9211242F933F938F939F93AF93A3
:10089000BF9380917C0290917D02A0917E02B091E5
:1008A0007F0230917B0223E0230F2D3720F4019645
:1008B000A11DB11D05C026E8230F0296A11DB11D83
:1008C00020937B0280937C0290937D02A0937E0212
:1008D000B0937F028091800290918102A091820268
:1008E000B09183020196A11DB11D80938002909367
:1008F0008102A0938202B0938302BF91AF919F9136
:100900008F913F912F910F900FBE0F901F901895D0
:100910003FB7F8948091800290918102A091820269
:10092000B091830226B5A89B05C02F3F19F0019610
:10093000A11DB11D3FBF6627782F892F9A2F620F07
:10094000711D811D911D42E0660F771F881F991F41
:100950004A95D1F708958F929F92AF92BF92CF920E
:10096000DF92EF92FF926B017C01D2DF4B015C01C1
:10097000C114D104E104F104E1F0A0D1C9DF681988
:1009800079098A099B09683E73408105910580F3C6
:1009900021E0C21AD108E108F10888EE880E83E050
:1009A000981EA11CB11CC114D104E104F10431F75B
:1009B000DFCFFF90EF90DF90CF90BF90AF909F90F0
:1009C0008F900895789484B5826084BD84B58160E9
:1009D00084BD85B5826085BD85B5816085BDEEE647
:1009E000F0E0808181608083E1E8F0E01082808126
:1009F00082608083808181608083E0E8F0E0808194
:100A000081608083E1EBF0E0808184608083E0EBB3
:100A1000F0E0808181608083E1E9F0E080818260A4
:100A20008083808181608083E0E9F0E08081816063
:100A30008083E1EAF0E08081826080838081816050
:100A40008083E0EAF0E0808181608083E1E2F1E090
:100A5000808182608083808181608083E0E2F1E038
:100A6000808181608083EAE7F0E080818460808318
:100A700080818260808380818160808380818068C2
:100A800080831092C1000895863308F08653209128
:100A90007B00982F9870277F922B90937B00877014
:100AA0002091050290E4299F90011124822B8093CC
:100AB0007C0080917A00806480937A0080917A0033
:100AC00086FDFCCF809178002091790090E0922BF8
:100AD000089590E0FC013197E231F10508F04BC038
:100AE000EE58FF4F3DC1809180008F7703C0809109
:100AF00080008F7D80938000089580918000877FA3
:100B0000F9CF84B58F7702C084B58F7D84BD0895F9
:100B10008091B0008F7703C08091B0008F7D80936B
:100B2000B0000895809190008F7707C08091900069
:100B30008F7D03C080919000877F809390000895FF
:100B40008091A0008F7707C08091A0008F7D03C0A7
:100B50008091A000877F8093A0000895809120015C
:100B60008F7707C0809120018F7D03C08091200185
:100B7000877F809320010895CF93DF9390E0FC015D
:100B8000E25BFE4F2491FC01EC56FE4F84918823DA
:100B900049F190E0880F991FFC01E25FFD4FA5919C
:100BA000B4918C509E4FFC01C591D4919FB76111B7
:100BB00008C0F8948C91209582238C93888182239D
:100BC0000AC0623051F4F8948C91322F309583230F
:100BD0008C938881822B888304C0F8948C91822B1B
:100BE0008C939FBFDF91CF9108950F931F93CF9365
:100BF000DF931F92CDB7DEB7282F30E0F901E85F11
:100C0000FE4F8491F901E25BFE4F1491F901EC561D
:100C1000FE4F04910023C1F0882319F0698359DF46
:100C20006981E02FF0E0EE0FFF1FEC50FE4FA59121
:100C3000B4919FB7F8948C91611103C010958123F2
:100C400001C0812B8C939FBF0F90DF91CF911F919B
:100C50000F910895CF92DF92EF92FF920F931F931F
:100C6000CF93DF937C016A01EB0100E010E00C15EB
:100C70001D0571F06991D701ED91FC910190F08112
:100C8000E02DC7011995892B19F00F5F1F4FEFCF8A
:100C9000C801DF91CF911F910F91FF90EF90DF90EE
:100CA000CF90089508958EDEFDDFEFDAC0E0D0E04A
:100CB00044DB2097E9F30E940000FACF089597FBE8
:100CC000072E16F4009406D077FD08D053D007FC09
:100CD00005D03EF4909581959F4F0895709561954C
:100CE0007F4F0895A1E21A2EAA1BBB1BFD010DC068
:100CF000AA1FBB1FEE1FFF1FA217B307E407F507CC
:100D000020F0A21BB30BE40BF50B661F771F881FA7
:100D1000991F1A9469F760957095809590959B013D
:100D2000AC01BD01CF010895052E97FB16F4009488
:100D30000FD057FD05D0D6DF07FC02D046F408C01F
:100D400050954095309521953F4F4F4F5F4F0895F7
:100D500090958095709561957F4F8F4F9F4F089527
:100D6000EE0FFF1F0590F491E02D19940790F69176
:100D7000E02D1994AA1BBB1B51E107C0AA1FBB1F82
:100D8000A617B70710F0A61BB70B881F991F5A9517
:100D9000A9F780959095BC01CD01089512E0CAE2B3
:100DA000D2E000E005C022970109FE010BBFDEDFA3
:0E0DB000CC32D10780E00807B1F7F894FFCFEE
:100DBE00303030302F0100000000C6012A06330209
:060DCE00A5011902180244
:00000001FF
